:020000040000FA
:06000000020AB402021F17
:03002B000208B711
:030043000207852C
:0300530002015453
:03006B0002075F2A
:100083000201B30100F0FF0700080000FFFF0000BA
:10009300050400000003000147726F757000FF0440
:1000A30000100020FD000206FFFF01AA00AB00AC18
:1000B30000AD00AE00AF00A000A100A2000800F355
:1000C3001500000080130000000000000000000085
:1000D30000000000000001080401030101038A88F5
:1000E300038488010400007F16000000E803000079
:1000F300FFFFD0160188130000E8030000640064CA
:1001030000B801A0BB0D00A0BB0D00020202070452
:1001130001051E02051E020A0A0108080103B80BA5
:1001230002803E0102FEFFE8030A050001FFFF0211
:100133000A011401E00200000005030101FF0F534F
:100143002500000000272400000000FF000000FF3E
:1001530000C0E074F1120436A2AFE433F509D2AF64
:1001630085A708AFA1EF5508FE74105E6006120D57
:100173007475A1EF74085E6008120D7A75A1F7809B
:1001830024EFA2E092F0E508A2E082F0501790611C
:1001930098E0F89007ADE0C398A2D265D03350023F
:1001A300E8F075A1FEE509A2E092AF7F0202049593
:1001B300C0E074F2120436A2AFE433FED2AF906112
:1001C300A4E0F8759B00E59158540860087591F711
:1001D300120DC88023E59158541060087591EF12F1
:1001E3000DCE8014E591A2E092F0E8A2E082F050F7
:1001F30007E0C2E0F0120F189061A3E0F8E5E958B8
:100203005404600E120EEE75E9FB906193E0A2E6D2
:1002130040F2EEA2E092AF7F01020495C0E074F2D7
:10022300120436A2AFE433FED2AF9061A5E0F8E545
:10023300BF585404600675BFFB120F3080D4C3E46B
:1002430098F8E499F91202828026C3E49AFAE49BAF
:10025300FBE920E7E9120282E498F8E499F922C362
:10026300E498F8E499F9120282E498F8E499F9C35E
:10027300E49AFAE49BFB22EB20E7CFE920E7E0B91D
:100283000010BB0008E88AF084F8AAF022E4FBC857
:10029300FA22EB70227B10C833C8C933C933500725
:1002A300C39AC3DBF280069A50012ADBEAC833F40F
:1002B300C8C933F4C9FA2275F008E4C833C8C9338E
:1002C300C933C99AC99B5004C92AC93BD5F0ECFB71
:1002D300C833F4C8E4C9FA22080808EAC0E0EBC04E
:1002E300E086F0E7A4FA180986F0E7A42AFA1809C9
:1002F30086F0E7A42AFA180986F0E7A42AFA1986F1
:10030300F0E7A4FBE5F02AFA190886F0E7A42BFB33
:10031300E5F03AFA190886F0E7A42BFBE5F03AFA80
:1003230018180986F0E7A4C5F02BFBE43AFA19087C
:10033300E7C5F0C6A426F6E5F03BFBE43AFA1886D7
:10034300F0E7A4F6E5F00826F6E43B08F6E43A08FD
:10035300F6D0E0FBD0E0FA22E4CFC0E0E4CEC0E088
:10036300E4CDC0E0E4CCC0E075F020E626F608E674
:1003730033F608E633F608E633F6181818EC33FCC0
:10038300ED33FDEE33FEEF33FFC3EC9709ED970931
:10039300EE9709EF97191919400FFFEC97FC09ED38
:1003A30097FD09EE97FE191906D5F0BFECF709ED95
:1003B300F709EEF709EFF7191919D0E0FCD0E0FDC2
:1003C300D0E0FED0E0FF222518C582C0E0E5193455
:1003D300FFC583C0E0E518C3958224F810AF0885F4
:1003E30083198582188008858319858218D2AFCE38
:1003F300F0A3E520F0A37808E608F0A3DEFAEFF017
:10040300A3E58124FAF8E608F0A3E608F0A3E608DA
:10041300F0A30808E608F0A3E608F0A31581158108
:10042300D0E0FED0E0F8158115811581E8C0E0EE3B
:10043300C0E022C0D02518C582C0E0E51934FFC54D
:1004430083C0E0E518C3958224F310AF08858319B0
:100453008582188008858319858218D2AFC8F0A3D6
:10046300E9F0A3EAF0A3EBF0A37908E709F0A3D836
:10047300FAECF0A3EDF0A3EEF0A3EFF0A3D0E0F0DD
:10048300A3D0E0F0A3D0E0F0A3E520F0A3E5F0F0E3
:10049300A322851983851882E0C0E0A3E0F9A3E0D5
:1004A300FAA3E0FBA37808E0F608A3DFFAE0FCA3D5
:1004B300E0FDA3E0FEA3E0FFA3E0C0E0A3E0C0E013
:1004C300A3E0F5D0A3E0F520A3E0A3F5F010AF0877
:1004D3008583198582188008858319858218D2AF90
:1004E300D082D083D0E0F8D0E032120B2EB90003D3
:1004F30002052CE4900301786E79178002F0A3D8EB
:10050300FCD9FA7A6E7B1990008678CF7901801531
:10051300E493A3AD82AE838A828B83F0A3AA82ABDA
:10052300838D828E83D8E9D9E77582EE7583DB7478
:100533000412084875829C7583217400120848E4EC
:100543007375F0108E1A8F1B85821F85831E851885
:1005530082851983E0CEA3E0CF851F82851E83EBBE
:10056300C9EAC8EDCBECCAC3E833C8E933C9EA33F7
:10057300CAEB33CBC3EA9EF51DEB9FF51CB35004C6
:10058300AB1CAA1DEC33CCED33CDD5F0DAAE1AAFEC
:100593001B22D083D082ECC0E0EDC0E0E493A3FC47
:1005A300E493A3FDED4C600D12066DEC24FFFCED0E
:1005B30034FFFD80EFE493A3FCE493A3FDED4C60D3
:1005C3000D12070AEC24FFFCED34FFFD80EFD0E0B1
:1005D300FDD0E0FCE493A3C0E0E493C0E0228519DE
:1005E30083851882E0A3FEE0A3F5207808E0A3F654
:1005F30008DFFAE0A3FFE0A3C0E0E0A3C0E0E0A3CC
:10060300C0E0E0A3C0E0E0A3C0E010AF088582181B
:100613008583198008858218858319D2AFD083D04A
:100623008202084ED083D082E9C0E0E493A3C3865C
:10063300F0C5F095F0F908E493A386F0C5F095F0C2
:10064300700BE493A3C3994005E9048002A3E47506
:10065300F002A42582F582E5F03583F583D0E0F935
:10066300E493A3C0E0E493C0E022C0E0C3E4939624
:10067300087401939618400FE49366700808740198
:1006830093661870007019A3A3C3E49396087401CA
:10069300939618A3A3400DD0E0D0E0D0E00205D19B
:1006A300A3A3A3A3A3A3D0E02274048004740280B1
:1006B30000CCC0E0EDC0E0E518C39CCCAD195001FF
:1006C3001D10AF068C188D1980068C188D19D2AFAA
:1006D3001207CAD0E0FDD0E0FC2274028000CCC037
:1006E300E0EDC0E0E518C39CCCAD1950011D10AF7F
:1006F300068C188D1980068C188D19D2AF1207A895
:10070300D0E0FDD0E0FC22C0E0C0F088F0E49366C6
:1007130070080874019366187000A8F0A3A3700B07
:10072300D0F0D0E0D0E0D0E00205D1A3A3D0F0D048
:10073300E022D083D082CCC0E0E493A36006120809
:100743000A1470FAE493A3600612094A1470FAD0EB
:10075300E0FCE493A3C0E0E493C0E022C0E074F2C1
:10076300120436A2AFE433FED2AFE589A2E150030F
:10077300120C4E758900C2C5EEA2E092AF7F010252
:100783000495C0E074F2120436A2AFE433FED2AF94
:10079300C2C0E5D1A2E45003120CE4EEA2E092AF92
:1007A3007F01020495CAC0E0E493A3C582CCC5824D
:1007B300C583CDC583F0A3C582CCC582C583CDC512
:1007C30083DAE5D0E0CA22CAC0E0E0A3C582CCC583
:1007D30082C583CDC583F0A3C582CCC582C583CD35
:1007E300C583DAE6D0E0CA22C008C3E096F508085C
:1007F300A3E096420808A3E096420808A3E09645C2
:10080300087001D3D00822C0E0E493A3D39C501016
:10081300E493A3C39C400AD0E0D0E0D0E0020752A7
:10082300A3A3A3D0E02270090808082260161818B1
:1008330018C6C333C608C633C608C633C608C6338C
:10084300C6D5E0EA22C09FF59FE473D09F22D083F0
:10085300D082C09FE493C0E0740193C0E07402931C
:10086300F59F2200C0D0251810AF08F518500C05CD
:10087300198008F51850020519D2AFD0D0222518D7
:10088300F58210AF08F518400C15198008F51840CB
:10089300021519D2AF851983227404800A74038068
:1008A30006740280027401C0E0F404120881D0E0EF
:1008B300120AF122C0E0C0D0E8C0E0A8A8D2AFC2BB
:1008C300C7E8A2E792AFD0E0F8D0D0D0E032BB01C6
:1008D30002E722C082C08389828A83BB0003E0804F
:1008E30002E493D083D082226016080808C6C3139B
:1008F300C618C613C618C613C618C613C6D5E0EA6B
:1009030022C3E0C696F608A3E0C696F608A3E0C69F
:1009130096F608A3E0C696F6222518F8E43519F9E9
:10092300222518FAE43519FB222518FCE43519FDB4
:1009330022251810AF08F518400C15198008F51872
:1009430040021519D2AF22C0E0E493A36C7009D022
:10095300E0D0E0D0E0020752A3A3D0E022E066702B
:100963001008A3E066700A08A3E066700408A3E019
:100973006622E76670100809E766700A0809E766E9
:1009830070040809E76622C3E09608A3E09608A36B
:10099300E09608A3E096A2D265D03322C3E096F096
:1009A30008A3E096F008A3E096F008A3E096F022EF
:1009B300C3E697F60809E697F60809E697F60809E5
:1009C300E697F622C3E4939608740193960874029B
:1009D3009396087403939622E647F60809E647F6CA
:1009E3000809E647F60809E647F622700422600D77
:1009F30018C6C333C608C633C6D5E0F41822E026AA
:100A0300F008A3E036F008A3E036F008A3E036F0E0
:100A130022E026F608A3E036F608A3E036F608A39C
:100A2300E036F622E657F60809E657F60809E657D0
:100A3300F60809E657F622E627F60809E637F60828
:100A430009E637F60809E637F622E056F008A3E090
:100A530056F008A3E056F008A3E056F022E056F65D
:100A630008A3E056F608A3E056F608A3E056F622DC
:100A7300E4C396F608E496F608E496F608E496F6D8
:100A830022C6F4C608C6F4C608C6F4C608C6F4C629
:100A930022C3E7960809E7960809E7960809E79647
:100AA30022C3E09608A3E09608A3E09608A3E09685
:100AB3002275D00075813F75180175190300020472
:100AC300EDE6F008A3E6F008A3E6F008A3E6F022BB
:100AD300600C08C6C313C618C613C6D5E0F422E0DB
:100AE300F608A3E0F608A3E0F608A3E0F622CAC0DE
:100AF300E0E6F0A308DAFAD0E0FA22E8F0A3E9F09E
:100B0300A3EAF0A3EBF022E0F8A3E0F9A3E0FAA351
:100B1300E0FB22EAF0A3EBF0A3ECF0A3EDF022E07C
:100B2300FAA3E0FBA3E0FCA3E0FD22E5C754F844ED
:100B330001F5C77901222518F582E43519F58322D9
:100B4300C2AF75D69F02000022120851219E0412E3
:100B53000851849F04120851D79F041208510FA013
:100B630004120851F2DE031208516EDF031208511A
:100B7300A1DF03120851CFDF03120851E9E1031289
:100B8300085105E2031208514AE203120851CFE269
:100B9300031208511BE303120851ABE3031208517C
:100BA30083E403120851D4E40312085139E5031214
:100BB3000851B6E503120851ECE50312085137E674
:100BC300031208515DE603120851EDE603120851C2
:100BD30084E703120851D0E70312085101E8031216
:100BE300085138E803120851C9E90312085193EA7E
:100BF300031208516DEB031208516CEF04120851F4
:100C03007DEF04120851F8FF01120851C8EF0412D6
:100C1300085116EC0412085126EC0412085141EC59
:100C230004120851A9EC041208519EE80412085159
:100C330021E90412085187E904120851A0EA0412B9
:100C43000851BCEA0412085113EB041208514BEB90
:100C530004120851E7C804120851F5C804120851D8
:100C630026C90412085140C904120851C3C9041209
:100C73000851E8C90412085105CA0412085122CACE
:100C83000412085145CA0412085178CA04120851C3
:100C9300AECA0412085112CB04120851B7CB041286
:100CA3000851F1CF04120851FFCF0412085178D034
:100CB300041208514CD1041208511ED304120851D6
:100CC300C0FF011208511CF80212085188F80212E1
:100CD300085140F9021208512CFA021208519CFBE8
:100CE3000212085103FC0212085157FC0212085168
:100CF30060FC0212085170FC02120851E3FC02125C
:100D03000851F9FC0212085103FD02120851B8FA06
:100D130001120851E4FA0112085155FD011208515C
:100D230095FD01120851D5FD01120851E9FD01128B
:100D3300085102FE01120851F3FE0112085198FFF7
:100D430001120851ACFF0112085128FE0312085189
:100D53004CFE0312085165FE0312085197FE03125D
:100D63000851C7FE03120851F4FE0312085156FF3F
:100D73000312085165FF031208516FFF0312085154
:100D83007CFF0312085149D90412085169D904128E
:100D93000851A8D904120851C3D904120851E2D941
:100DA3000412085148DA0412085151DA04120851A6
:100DB300AEDA04120851BDDA04120851E1DA041262
:100DC3000851A2DB04120851AFDB04120851C0DB47
:100DD30004120851B87F00120851D07F0012085145
:100DE300FC7F00120851D9F90312085133FB031297
:100DF300085141FB0312085154FB0312085169FBCC
:100E0300031208517EFB0312085191FB0312085190
:100E130005FC031208516AFC031208510CFD03126E
:100E23000851D0FD03120851E0FD03120851EFFDF4
:100E3300031208517DEB04120851A1EB041208516F
:100E4300C9EB04120851F1EB0412085180DE0412BD
:100E53000851A7DE04120851C5DE0412085138DF19
:100E63000412085176D6041208518FD60412085181
:100E73009BD604120851AFD604120851CDD60412E2
:100E83000851D7D604120851E1D604120851F4D6FA
:100E9300041208517AD704120851EFD704120851EB
:100EA3001ED8041208516CD804120851BBD804127E
:100EB3000851D6D804120851E0D804120851F1D8C9
:100EC3000412085134D904120851D0ED0412085108
:100ED300CFA904120851F9A90412085116AA041241
:100EE300085129AA041208513FAA041208519DAAC5
:100EF30004120851D5AA04120851C9AE04120851AC
:100F03000EB00412085141B004120851A4B00412E7
:100F1300085104B2041208512CB20412085141B210
:100F23000412085151B20412085195B20412085127
:100F3300F0B20412085100B3041208516EE7041210
:100F4300085188E704120851B0E704120851C9E7B1
:100F530004120851EDE7041208510BE8041208517A
:100F630022E80412085150E8041208516BE80412F5
:100F730008516BEE041208516CCC041208517CCC5E
:100F83000412085181CD04120851B3CD0412085143
:100F9300E3CD0412085106CE041208511DCE0412EB
:100FA300085157CE04120851BCCE04120851FECE8C
:100FB300041208513DCF041208516ECF0412085198
:100FC30099CF0412085107E30412085119E30412DC
:100FD30008512DE404120851BAE404120851E8E45C
:100FE300041208511EE50412085138E50412085191
:100FF3007AE5041208518AE50412085124E6041222
:10100300085155A0041208515FA00412085199A079
:101013000412085102A1041208511FA1041208511D
:10102300C1A10412085140A40412085149A4041296
:1010330008518EA404120851B7A404120851C4A481
:101043000412085135A504120851C0A50412085111
:101053000EA6041208514CA604120851B1A604129C
:101063000851D4A6041208514BA704120851A2A791
:1010730004120851DDA70412085112A804120851E2
:1010830024A80412085136A80412085155A80412C2
:1010930008515EA80412085119A90412085165A940
:1010A30004120851A3A9041208512EE60412085190
:1010B300D1E00412085107E1041208514FE1041270
:1010C3000851A8E204120851E5BA0312085109BCF9
:1010D3000312085143BC03120851EDBD031208511A
:1010E30017BE031208518CC003120851CCC003125F
:1010F300085162C203120851FFC20312085151C3BF
:1011030003120851F4C3031208512CC403120851EB
:101113006EC403120851DDC5031208512BC7031215
:1011230008515CC9031208518AC903120851B1C995
:1011330003120851BAC9031208510ACA031208510B
:101143009CCA03120851CBCD031208514ECE031291
:101153000851B2EF041208511BEE04120851E3C404
:1011630004120851F9C4041208519DC50412085110
:10117300DCC504120851F9C5041208512AC6041229
:10118300085177C604120851AAC604120851E5C6CD
:1011930004120851DAC804120851A0E904120851D4
:1011A300FFE9041208513DEA041208517EEA0412D1
:1011B30008510080021208510C80021208516E80FF
:1011C3000212085178800212085105810212085157
:1011D300418102120851F281021208516A820212FD
:1011E3000851E782021208513D8302120851BA8363
:1011F3000212085160850212085135870212085104
:101203005B8802120851B589021208514C8A0212F6
:1012130008518B8B02120851898C02120851ED8DF3
:10122300021208517F920212085167930212085169
:10123300FA93021208511F940212085144940212A5
:101243000851DE9402120851F494021208511695C3
:1012530002120851879502120851A69502120851ED
:10126300CF9502120851CF9602120851D39702125A
:1012730008515999021208517A9902120851209A79
:1012830002120851689A02120851CD9A02120851AB
:101293004E9B02120851B29B021208510E9C02127D
:1012A3000851A49C02120851199D021208514C9D29
:1012B30002120851B49D021208510D9F02120851E7
:1012C3009FA00212085146A102120851A1A30212C3
:1012D3000851EEA302120851FEA3021208514DA4B5
:1012E30002120851BFA402120851EFA402120851BE
:1012F3005DA50212085108A602120851FAA70212AC
:10130300085179AA021208517EAB02120851A2AF0A
:101313000212085163B00212085185B1021208513A
:1013230022B30212085146EC03120851F6EC0312E1
:1013330008516FED0312085170EE0312085177EF55
:1013430003120851F9EF0312085118F1031208515F
:1013530039F10312085120F2031208515CF303120E
:10136300085107F40312085168F70312085130B308
:101373000412085117B40412085117B50412085186
:101383007DB50412085186B504120851B6B604128D
:101393000851DBB604120851ABB804120851E6EE4B
:1013A30004120851AAA503120851D9A50312085122
:1013B30051A60312085154A703120851B0A70312F0
:1013C300085131A9031208514DA9031208519FA9CD
:1013D30003120851D7A903120851EAA903120851AD
:1013E3003CAA03120851C8AA0312085135AB0312D1
:1013F30008515FAB0312085197AB031208517BAD41
:101403000312085154AE031208519DAF0312085141
:10141300C9AF031208519CB00312085124B103123F
:10142300085165B1031208517FB103120851C6B1C7
:1014330003120851E6B10312085180B20312085196
:101443000FB30312085169B303120851ADB303126A
:10145300085129B6031208514BB70312085187B735
:101463000312085179B803120851A1B803120851A5
:10147300A4B803120851AEB803120851C1B803123D
:1014830008514AB90312085180B903120851ACB983
:1014930003120851D3B903120851F7B903120851C3
:1014A3008EBA031208519CBA03120851CFBA031221
:1014B300085149ED0412085155ED0412085193EDFA
:1014C30004120851FBFF011208513FE401120851B5
:1014D30062E401120851B5E501120851FEE501125B
:1014E300085158E601120851BEE601120851C1E63F
:1014F300011208510DE70112085187E70112085143
:101503000FE80112085112E8011208519EE8011276
:101513000851E1E80112085134ED01120851D1EEEE
:101523000112085124EF0112085196F201120851D9
:10153300B4F30112085148F501120851D6F501120E
:101543000851D7F6011208513CF9011208519BCEFC
:10155300031208513BCF03120851A5CF03120851C0
:10156300BECF0312085148D0031208519ED0031274
:101573000851E2D00312085149D103120851BFD2D6
:1015830003120851EDD30312085166D40312085114
:1015930069D60312085111D703120851A0D70312B9
:1015A300085173D8031208514EDA03120851EFDBC6
:1015B3000312085197DC03120851E2F70212085193
:1015C3004A6500120851BE650012085106660012F2
:1015D30008514466001208518D6600120851D766FF
:1015E300001208510F67001208518D67001208514D
:1015F300E76700120851436900120851D4690012C9
:101603000851326A001208514C6A001208516D6A7F
:1016130000120851C56A00120851629D0412085154
:10162300556D00120851346E001208514C6F0012B0
:101633000851C96F001208513670001208519F708B
:101643000012085159710012085117730012085102
:101653001874001208519D75001208517E7700120C
:101663000851E17900120851877B00120851557C1B
:1016730000120851BB7C00120851D27C00120851A1
:10168300C27D00120851AE7E001208511B7F00126A
:10169300085116FD0212085162FE021208511FFF83
:1016A3000212085183FF0212085173D30412085126
:1016B3008ED304120851D2D304120851F8D3041262
:1016C30008511ED40412085136D40412085199D477
:1016D30004120851AED404120851D0D50412085193
:1016E300D9D504120851E2D504120851EBD50412DE
:1016F300085153BC0412085141C00412085146C09A
:101703000412085148C0041208510DDD0412085197
:1017130017EF0412085186FF0312085196FF0312B4
:101723000851AFC004120851B3EC04120851DDECA8
:1017330004120851AFEE0412085143EF041208518A
:10174300DDFF031208510080031208513380031296
:1017530008519A8003120851268103120851CB8144
:1017630003120851138203120851388203120851DD
:10177300518203120851778203120851998203128E
:101783000851D782031208512683031208514F834D
:1017930003120851AE8303120851878403120851C0
:1017A3003D85031208519B8503120851628603127B
:1017B3000851B9860312085124870312085162871E
:1017C30003120851B88703120851308803120851D5
:1017D3008788031208518A88031208510B89031260
:1017E3000851AA8903120851268A03120851488A0C
:1017F30003120851AB8B03120851B88B0312085123
:10180300BC8C03120851C98C03120851D28C0312E9
:101813000851CD8E03120851E78F031208515B90D4
:1018230003120851C89003120851F0900312085193
:101833008291031208516593031208513C970312D6
:1018430008515097031208516097031208516A9781
:10185300031208517397031208517C97031208511E
:10186300869703120851B59703120851E89703129C
:101873000851F397031208511798031208513B9824
:1018830003120851989803120851DE980312085165
:10189300FA98031208516D9903120851A49903127F
:1018A3000851E39903120851309A03120851B69A6A
:1018B30003120851929C031208511C9D03120851F4
:1018C300019E0312085176A003120851C9A0031206
:1018D3000851F1A0031208511BA20312085148A298
:1018E300031208519AA2031208514FA3031208517D
:1018F300FFA30312085134A403120851CAA403120C
:1019030008514EA5031208511B89011208514D8934
:10191300011208517D8901120851518B011208519E
:10192300328C011208518A8C01120851CD8D01129B
:101933000851198E011208514D91011208516394F7
:1019430001120851AD950112085143960112085135
:101953004F96011208518F960112085119980112DE
:1019630008510D99011208513799011208519E9996
:1019730001120851F799011208516E9A0112085188
:10198300B59C011208514C9E01120851209F01126F
:1019930008515FA001120851A4A20112085175A5B4
:1019A3000112085184A50112085108A60112085119
:1019B300AFA601120851F2A6011208513BA701126A
:1019C30008518FA701120851F4A70112085157A813
:1019D3000112085173A801120851A5A80112085158
:1019E300E4A801120851C9A90112085178AA0112E9
:1019F3000851FCAC011208513EAE011208511DAF53
:101A0300011208519DAF01120851BFB301120851D1
:101A1300FDB30112085158B4011208518BB40112DD
:101A2300085107B50112085123B501120851BEB57B
:101A3300011208510CB601120851DFB60112085108
:101A4300A4B70112085142B8011208514BBB01124D
:101A530008515FBC01120851FCBF0112085104C1B7
:101A63000112085107C10112085136C10112085170
:101A730035C3011208510EC40112085155C4011295
:101A83000851A2C501120851DCC50112085189C6CB
:101A930001120851BDC6011208516FC70112085146
:101AA3007EC901120851E9C90112085131CA011254
:101AB3000851CECA01120851FDCB01120851C4CC02
:101AC30001120851BACE01120851CECE01120851AB
:101AD300E2CE0112085118CF0112085148CF01126A
:101AE3000851D6D001120851B7D10112085127D29B
:101AF30001120851D7D20112085107D3011208511C
:101B0300D1D3011208518ED40112085197D6011274
:101B13000851D6D60112085143D70112085188D86B
:101B2300011208513BD9011208516FD90112085112
:101B330087D9011208512ADA0112085118DD01125E
:101B43000851E3DE0112085107DF0112085125DFB6
:101B530001120851F9DF0112085121E40112085161
:101B6300942700120851C62700120851C52B0012F2
:101B73000851112C00120851572C00120851FF2C48
:101B830000120851692D00120851B12D001208519D
:101B93000F2F00120851143000120851063400129E
:101BA3000851973400120851BF35001208511C36F2
:101BB30000120851EB370012085162380012085125
:101BC3006C3800120851793800120851A4380012F9
:101BD30008518B3900120851443A00120851C73A90
:101BE30000120851E03A00120851093B0012085153
:101BF300363B00120851903D00120851543E00122A
:101C03000851993E00120851103F00120851BE3F7F
:101C130000120851F03F00120851364000120851DB
:101C2300724000120851C3400012085117410012BC
:101C33000851A24100120851ED41001208515242CD
:101C430000120851CB42001208518A440012085175
:101C5300994500120851B84600120851144A00125F
:101C63000851434D00120851FC4D00120851444ED7
:101C730000120851E34F00120851F74F00120851A8
:101C83000150001208510B50001208511750001256
:101C93000851365000120851EC50001208514551BA
:101CA300001208514F5100120851595100120851A6
:101CB300C951001208511052001208511553001255
:101CC3000851645300120851075400120851E0549C
:101CD30000120851005600120851425700120851D1
:101CE3003C580012085154580012085188580012E9
:101CF3000851A658001208510559001208512C59D1
:101D030000120851C75900120851865A001208518F
:101D1300F65A001208516E5B00120851785C0012EB
:101D23000851455D001208513F5E00120851845E60
:101D330000120851DF5E00120851465F001208517D
:101D4300745F00120851985F00120851CD5F0012B2
:101D53000851FA5F00120851406000120851646094
:101D630000120851CD6000120851B56100120851EC
:101D7300006200120851296200120851C162001268
:101D830008514463001208517063001208516564DE
:101D930000120851008004120851388004120851BF
:101DA3005980041208519D800412085101810412C4
:101DB30008510B81041208511B81041208515281EE
:101DC300041208514A850412085158870412085115
:101DD300458904120851DC89041208517E8A0412D1
:101DE300085142B602120851B2B60212085112B794
:101DF300021208515DB70212085178B70212085156
:101E03009FB702120851BCB702120851C8B7021299
:101E1300085173B9021208518CB90212085115BA4C
:101E23000212085128BA0212085147BA0212085185
:101E3300E2BA0212085152BC02120851F9BD021251
:101E4300085188BE021208518BBE02120851FBBE14
:101E53000212085119BF02120851BEBF02120851E3
:101E6300FABF02120851FDBF02120851C3C0021289
:101E7300085126C1021208515FC102120851D4C190
:101E830002120851F2C10212085140C20212085153
:101E930015C30212085163C302120851ABC30212E5
:101EA300085138C4021208516DC402120851A2C469
:101EB30002120851B0C4021208510FC50212085190
:101EC30087C502120851C8C50212085118C602126A
:101ED300085143C6021208515DC60212085177C663
:101EE3000212085152C7021208515CC7021208516C
:101EF30097C702120851A7C702120851B0C70212AE
:101F0300085108C8021208511CC80212085152C9CC
:101F13000212085167C902120851F5C90212085189
:101F23005DCA0212085110CB021208511BCB0212D8
:101F3300085168CC0212085184CC02120851D0CC4B
:101F4300021208513FCD0212085178CD02120851F6
:101F530092CD02120851D4CD0212085196D002122A
:101F630008514CD102120851DCD10212085124D479
:101F7300021208513CD4021208513FD402120851F4
:101F83004BD4021208515FD40212085167D40212D3
:101F930008519AD4021208518DD50212085118D64D
:101FA30002120851ABD60212085124D7021208516B
:101FB300E8D7021208510AD802120851A3D8021214
:101FC300085100D90212085103D9021208517DD9D0
:101FD30002120851C9DA02120851D4DB0212085165
:101FE3005FDC0212085164DD0212085124DE021282
:101FF300085155DE021208517BDE0212085184DEBD
:1020030002120851B2DE021208514ADF02120851CD
:10201300FFDF0212085170E00212085117E10212A9
:1020230008519EE102120851DDE10212085120E23B
:102033000212085175F702120851C9F5021208512C
:1020430087F502120851B1F4021208519BF40212EF
:1020530008515CF402120851A8F30212085197F0D8
:102063000212085196EE0212085166EE021208514E
:1020730001EE0212085194ED0212085153ED0212BF
:1020830008518CEC0212085127EC02120851D2EBD2
:102093000212085175EB021208514CEA0212085160
:1020A300E9E90212085165E90212085160E90212D6
:1020B300085154E90212085117E602120851F1E5DA
:1020C30002120851C59C041208515B9C041208516A
:1020D300479C041208519F9B04120851A89A0412AA
:1020E3000851D999041208513F970412085196E5F3
:1020F3000212085153E5021208513AE5021208513F
:102103008C96041208512FE5021208510BE50212B6
:10211300085146E302120851C5E2021208513B96E8
:102123000412085181E202120851366D001208515F
:102133005AE202120851F0950412085197950412BD
:1021430008515995041208512C9504120851F8941A
:10215300041208519794041208517F9404120851F1
:102163004F9404120851249104120851F78E04125B
:102173000851FE8C04120851848C04120851338CCC
:1021830004120851ECF702120851ED8B04120851A6
:10219300578B04120851A9DD0300000080FB8F0058
:1021A30001001C1A870001001A1A35000400E41903
:1021B30025000200E81926000200EA1927000200A0
:1021C300EC1928000100F61929000100F719840011
:1021D30004005A17860001007C192A000100F8192F
:1021E3002B000100F9192C000100FD192D00080036
:1021F30066172E000100FE192F000100FF193000A1
:102203000100001A31000100011A320001006E17AB
:10221300330001006F1734000100021A3600010079
:10222300701738000100031A39000100FC198300FC
:102233000200181A630001007C1764000100FA19F8
:1022430065000100FB196D0001007D177100080096
:102253005E1766000100171A43000100081A4400C4
:102263000200091A450001000B1A460002000C1A6D
:10227300470008007417480001000E1A4B000100C4
:102283000F1A040001001B1AA10001001F1A3700D6
:1022930001001E1A880001001D1A3C00010071177D
:1022A3003D000100041A49000200101A67000100F2
:1022B3007E174D000200121A4E000100141A4F003F
:1022C3000200151A3E000100071A5100010072179F
:1022D30052000100051A53000100061A54000100C0
:1022E30073170000000000000001363601010001F1
:1022F30002010001030100010401060605020000BA
:10230300070100340801000F090401010D0100FF5A
:102313000E08000017020000190100FF1A01000156
:102323001B0100FE1C0100081D0200001F0100012B
:1023330020010001210200002301000F24020000FC
:102343002601000127010008280200FF2A010007D7
:102353002B0102402C0100002D0100012E01000180
:102363002F0100FF30010B1D310800003A01000866
:102373003B01000F3C0100013D0100FF3E04000052
:1023830042040000460400004A0400004E0400001A
:1023930052040000560400005A040000000000002C
:1023A300200119890000030020011889000004009E
:1023B30042011487000005004201F2860000060076
:1023C300420103870000070030011A890000100052
:1023D300420342160000110030035316000012009E
:1023E3001003C1190000FDFF210113890300000040
:1023F300210354160300FDFF214113890700000048
:1024030030019519070010003003F4150700FDFF94
:10241300210113890600FDFF218113890400FDFFBB
:1024230021811389010371030103010301030103E3
:10243300010322030203010310030003000300034B
:102443000003000300030003420300032403060305
:1024530000030003040312032503230325032303BB
:102463000403040300030003000344030003000305
:1024730023030003650321003503810300030503E0
:102483000003000300030003250323030302710277
:102493003001600211027002010202020202800294
:1024A300100261023A004100630273027202620287
:1024B3004302000213023800000200020402120267
:1024C3000002000200020002040204023700370087
:1024D3003C024402000239000002000265020002CD
:1024E3003502810200020502820283020002010119
:1024F3007101010101011101010131010101010119
:102503008001100161013B0014006301730172013A
:10251300620143010001130106013D01350004017D
:102523001201000100010001000104010401330153
:1025330033013C0144013201360000010001650111
:1025430000013500810100010501820183010001C1
:10255300030071003001600011007000310220039C
:102563005004800010006100000014006300730039
:102573007200620043000000130006000000000028
:10258300040012000000000000000000040004002A
:10259300370037003C024400000000000000000048
:1025A3006500000035008100000005000000830085
:1025B300000036000100060000000F0000000000CC
:1025C300000000000000000003FFFF00000403FF01
:1025D300FF0000FFFF0FF4010005C4040320000106
:1025E30000000B000000000000000003010F0000CA
:1025F30000000000000000000000000000000000D8
:1026030000000000000000000000000000000000C7
:10261300AE12F612B412D011BA12FC12BA12081387
:10262300C012D011BA12FC12C612D0110000000061
:10263300CC12D0110000000000000000D212D01113
:10264300D8120E13DE12D0110000000000000000AB
:1026530000000000E4122013EA12D011E412201348
:10266300EA12D011D8120E13F012D011000078150F
:10267300010078150200EE140280E8140300F4143C
:102683000400FA140480001505000615060012154F
:102693003100241533002A1534003015FFFF0000E4
:1026A30007ECFDFDFDECDCDCCCBCACAC9C9C8C7C79
:1026B3007C6C6C5C5C5C4C4C3C3C2C2C1C1C03EA22
:1026C300F5E5D5D5C5B5A595958585757565655527
:1026D300554545353525251515050AD81B02A21B79
:1026E30005AE1B07A81B0C8A1B0D961BFF000000E1
:1026F300160F00000B150B020002220F3300000E11
:102703000F5A6967426565416C6C69616E63653038
:1027130039D0D1D2D3D4D5D6D7D8D9DADBDCDDDEE4
:10272300DF303016181920231A1C1E3000034D4CBD
:102733004651181A250502000119161816161823F2
:102743000300303017181921301B1D1F30003C4087
:10275300423A3F3F392F47300C0E020B040B0A0756
:1027630008000F020402010101010902E80300004D
:1027730000BE040A01000E000300E803FF04091170
:1027830003101E030A0C04040828020C0508151E76
:102793000474F71203CAE9901853F0901808E4F090
:1027A300120FC690186BE4F0A3F0901854F0A3F046
:1027B300121D28120FCC90178CE4F0A3F01216DA36
:1027C30002417274F01203CA74D312093485188259
:1027D300851983125DA654806068901853E0F9123E
:1027E30010448A088B09AE08AF09EE4F604C7C0099
:1027F30080010CEC75F003A4F8A9F074DD28F582D0
:10280300742639F583E493F46029E493F88E828F78
:1028130083E06870DDEC75F003A4F874DE28F582BC
:10282300742639F583E493C0E0740193F583D08271
:10283300120542EEFAEFFB12103212633964800282
:102843002BAB851882851983A3E054206021121CC9
:102853003E8A088B09AE08AF09EE4F600A121B9639
:10286300EEFAEFFB1210321263396420022BAB85B0
:102873001882851983E0A2E0502590180DE0640FBB
:1028830070117900121B6CE960099019E4120B2294
:10289300121B84851882851983E06401022B8A54F4
:1028A300207003022B8F7A207B00901853E0F912DB
:1028B3001188EA4B4C4D701A901867120B0AE849BD
:1028C3004A4B700E750801750900750A00750B00F7
:1028D300806A750C00750D00750E00750F001211DE
:1028E300948A088B098C0A8D0B901867120B0AE8DF
:1028F300494A4B603190186778081207EB400E7510
:102903000CFF750DFF750EFF750F7F801985080C81
:1029130085090D8C0E8D0F901867780C12090474BD
:1029230001780C1208EB850C08850D09850E0A85C4
:102933000F0BE508122DAA7003022ACA7C00790442
:102943007A007B00121C148A0C8B0DAE0CAF0D02A7
:102953002A0B7402120B3974FFF07403120B3974CF
:10296300FFF07404120B3974FF1260C67407120966
:102973002C1258231258FB121C5CE96401706B1271
:10298300499C4480F8A3E0F97428120B39E8F0A3BA
:10299300E9125FF5E0C0E0742A120B39D0E012426D
:1029A300AE540860167428120B39A3E04401122BAD
:1029B300BEC0E0742C120B39D0E0F0125C546012EC
:1029C300124151125D0CE0F87416120B39E8F0A3B2
:1029D300E4F09088EF1206AC740612092C740B1203
:1029E300092412183674041208668E828F83A3A3F7
:1029F300A3A3A3A3A3A3A37406122BBEF9121BF6CE
:102A03007405120B39125D20EE4F7003022ACA7C43
:102A1300007904EEFAEFFB121C147405120B39EA69
:102A2300F0A3EB124FCAE0F50CA3E0F50DE4F50EAD
:102A3300F50F7808790C120A944023EE2404F8E485
:102A43003FF985080C85090D88828983C3E0950CBD
:102A5300F0A3E0950D126442E84970A4800C8E82C5
:102A63008F83A3A3A3A3E4F0A3F08E828F83A3A3F6
:102A7300A3A3A3A3A3A3A3A3E064018E828F83A331
:102A8300A3A3A3A3A37023E0540460030229558ED8
:102A9300828F83A3A3A3A3A3A3A3A3A37406F07A00
:102AA300B7122CED121B7E022A03A3A3A3A3E0609B
:102AB300030229558E828F83A3A3A3A3A3A3A3A356
:102AC300A37401F0022A03121BE47C0079017A004B
:102AD3007B00121C148B0DEA450D600C7A207B00E1
:102AE300901853E0F912106E7C0079047A007B0091
:102AF300121C14EA4B7013804D8A828B83A3A3A309
:102B0300A3125DF4EE98EF99400B8A828B83A3A303
:102B1300A3A3125D207C007904121C148B0BA90B58
:102B2300EA4970D5C3E5089EE5099F500DC3EE95AC
:102B330008FEEF9509FFEE4F70167A207B00901880
:102B430053E0F912106E901867122BB7A3F0802E82
:102B5300EE2EFEEF33FF8E088F09E4F50AF50B78AE
:102B63000812089C7A207B00901853E0F912117622
:102B73007404120866121194901867120B168518C4
:102B830082851983E06420FAA3E0801CA3E0540447
:102B930060191254C31220F479019018061258FBDD
:102BA3001218481263396404FB80047A007B0074B2
:102BB3002D025C29E4F0A3F0A3F0221242B3A3A3F5
:102BC300E022C082C08374EA1209347C167D007946
:102BD30000AA18AB191210147408120B397402F0FE
:102BE3009017FC125723122C057409120B39125734
:102BF3003C7413120B39E41254011216CE741602EC
:102C03004577E8F0A3E9F0901806125C722274F796
:102C13001203CA74DA120934EAFEEBFFEE4F602D99
:102C2300AC18AD19121C5C7406120B39E0601E74EB
:102C330017120B39E0FD7401120B39E0FCEEFAEFC9
:102C4300FB7900121B42E9600479A48002790074C5
:102C53002602416F74F71203CAEAFEEBFF8E828FDE
:102C630083A3A3A3A3A3A3E054406017125C36126B
:102C730058FB121CF2E960067AFF7BFF8015125C99
:102C83003680039017FC1258FB74FE6A700374FFBE
:102C93006B6047125C36125DA6121CF2E98E828FBE
:102CA30083600E1263D112458438F583E4F0A38068
:102CB300031263F6F07C727D1B8E828F831258FBA6
:102CC3001216D4E9F5087015EE4F60097901EEFA92
:102CD300EFFB121BF0A9080241727508CDAA081276
:102CE3002CED121B7EE960E080EB8E828F831263F2
:102CF300D5240CF582E438F583E0F92274F6120347
:102D0300CAE9FEEAFF7A0F7B0012102CEA4B601F20
:102D13008A828B83740CF0EEA3A3F0EF8A828B83F9
:102D2300123F07901853E0F912103879008034EEFF
:102D3300F9121C1A8A088B09A808A909E849602115
:102D430088828983A3A3A3A3A3A3A3A3A374061223
:102D53005E07A3A3A3A3A3E0F91218D8EEF9121BED
:102D6300F679100251C474F41203CA8A088B098CD1
:102D73000A8D0B90180DE0640F7028122DA96023A3
:102D8300901808E064086005E0640470167808127F
:102D9300089C7A017B00901853E0F91211767404B1
:102DA30012086602300FEA4509450A450B2274F4FE
:102DB3001203CA74FC120934EAFEEBFF8E828F837E
:102DC300A3A3E0F9121C1A8A088B09EA45097003C8
:102DD300022EF08E828F83A3A882A983E0C0E0EA4B
:102DE3001253B3D0E0123D7264F160288E828F8358
:102DF300A3E064CD601E8E828F83A3E0641A601407
:102E03008E828F83A3E064E9600A8E828F83A3E0BE
:102E130064E170307900121BF0E96028E5082404AE
:102E2300F50AE43509F50B850882850983122F011C
:102E3300123D581258FB120FD8850A82850B831254
:102E43005DA680788E828F83A3E0C0E07402120BAC
:102E530039D0E012458A126430EE240B124476C056
:102E6300E07403120B39D0E0F0E5081260B81234B5
:102E73007BE0AA18AB1970051218308003121CDA14
:102E83007402120B39E064E9703285088285098384
:102E9300123614750A01780A1208A8750AE9780A25
:102EA3001208A8123D3C12417FA3A3A3A3A312417E
:102EB300771258FB121C92740212086685088285E9
:102EC3000983A3A3A3A3A3A3A3A3A3E064027012F0
:102ED300850882850983A3A3A3A3A3A3A3A3A374A0
:102EE30006F08E828F83A3A3E0F9121BF6121BE474
:102EF3009019EA1233DF121B84740402300CA3A36B
:102F0300A3A3A3A31258108E828F832274F41203F7
:102F1300CAEAFEEBFF7508008E828F83A3A3A3A3E7
:102F2300A3E0603B7508081258EE79FF1219B08BC5
:102F33000BEA450B601075082C8E828F83A3A3A325
:102F4300A3A3E0D2E0F08E828F83A3A3A3A3A3E085
:102F5300540364016003023006430811023006EE95
:102F630024181244766036EE241A1244766003F471
:102F73007012125DAC7003A3E06960030230067542
:102F83000822807FEE241B125806EE241A12447680
:102F9300FAEE2419124476F91218C680661258EE16
:102FA300121CF2E964027003750801125DAC700330
:102FB300A3E0697006E508D2E1F508E50860158E1F
:102FC300828F83A3A3E07006E508D2E58004E508B9
:102FD300D2E6F5081258EE121CF2E964017006E518
:102FE30008D2E0F5088E828F83A3A3E06015EE2458
:102FF3001D124CB6F9121CE0E964016006E508C233
:10300300E0F508A908800574091208667F04020523
:10301300E174F01203CA74D7120934EAFEEBFF8E8F
:10302300828F83A3A3A3A3E060119019E8125C5DD0
:1030330060099019E81233DF121B84740312092C00
:103043008E828F83A3A3A31255D51258F9121C5C49
:10305300E970030231AA78017405120B39E0C394B5
:1030630002400278007407120B39E0C39402400255
:103073007800740C120B39E064F87003A3E0F47069
:10308300030231AA740C120B39E064F97003A3E054
:10309300F470030231AA740C120B39E064FA700362
:1030A300A3E0F470030231AA740C120B39E064FB41
:1030B3007003A3E0F470030231AA7406120B39E023
:1030C300F99017F6E06960030231AAE8A2E0400331
:1030D3000231AA7427120B39E060030231AAEE24ED
:1030E30013125C687422120B391255DF241C125C14
:1030F300687410120B3912573C7409120B39E060D3
:103103001D741A120B39E0FD7404120B39E0FC8EA6
:10311300828F831258F97901121B42E9703D7403BF
:10312300120924121B90E9F50C7409120B39E07093
:103133002E9017F0E060287422550C6422602074EE
:1031430042550C644270147420120B391233EB6035
:103153000E7420120B391233D860047ACF804AE9F7
:10316300A2E6504D7420120B39124CBC24FD600FA3
:1031730014600C24FD600824FD600424FE70287490
:1031830020120B391233D1700E7420120B391253E3
:1031930010A3E0640D601A7403120924121D0AE9D6
:1031A3006401700D0233CC7AD37B001214C4023352
:1031B300CCEE242DF582E43FF58312360B7003A386
:1031C300E069702275080078081208A878081208C8
:1031D300A8EE242F124476F91233F11258FB121C75
:1031E3009274021208667409120B39E070030232FA
:1031F3008E1233F11258FB121D588A0E8B0FEA45BB
:103203000F70030233257404120B39E0F88E828F9A
:1032130083A3A3E028F8A3E03400F9E81245843936
:10322300F583E0F88A828B83A3A3A3E068600EE8AA
:103233008A828B83A3A3A3123F00122BB87904E9DC
:10324300120B391249BDA3E02AF8A3E034008882A7
:10325300F583A3AA82AB8312101A8A088B098C0AFE
:103263008D0B850E82850F83A3A3A3A37808120772
:10327300EB40030233CC9088CF7808120A14850EF2
:1032830082850F8312642CA31246B0901808E06461
:10329300046008E0640960030233CCE50CA2E54056
:1032A3000302335FEE242F12498DF0EE24301244D3
:1032B30076C0E07401120B39D0E0F0EE24311244F1
:1032C30076C0E07402120B39D0E0F07414120B399B
:1032D300E06401702C740E120B39123D6924131231
:1032E3004476687003A3E0697017740C120B3912EB
:1032F30058FB121CF2E9640270077414120B39E4D0
:10330300F0EE2425F582E43FF5831206AC74041233
:10331300092C740712092412183674041208660261
:1033230033CC90184DE06401600302328E74201296
:103333000B391233EB7009E50CA2E6500302328E0F
:103343007410120B39E0F47003A3E0F4607BEEFC1D
:10335300EFFD7403120924121B9C806DA2E65069D1
:103363007420120B3912581D7016741A120B39E09F
:103373006402705574031209247900121CD4804925
:103383007420120B391233D87014741A120B39E0EB
:10339300640470357403120924121CC8802B742032
:1033A300120B391233D1700C7900740312092412F1
:1033B3001D1680157420120B39125310E0640C7023
:1033C300087403120924121D227429025C29125C59
:1033D30040E0640322125C40E0640722E0F508A3A6
:1033E300E0AA08FBE4FCFD22124CC0640622EE2492
:1033F3002BF582E43F1233FF12446F22F5831258F8
:1034030010EE2274F41203CAEAFEEBFF8C088D0956
:1034130090176EE0600F125DAC7003A3E069700556
:103423001218B4804979001258EE1218E48A828B7C
:1034330083E5824583602FA3A3A3A3A3A3E054182A
:103443006024E508241C1234781206B01234741276
:1034530006B0EE2418124476F91234801218F6746A
:1034630004120866800879001234801218BA0230F8
:103473000FE5082413F582E43509F583228E828F44
:1034830083A3A3A3A3A3A3A3A3A312340112571A31
:103493001258FF2274F71203CA74F7120934EAFEB2
:1034A300EBFF901808E06403600DE064016008E03E
:1034B300640960030235B28E828F83A3E060030246
:1034C30035757C007D007A027B00120FD21235B76E
:1034D3008A828B83125C6E9017F912573C795312D0
:1034E30016BC901808E0640960099018061258FB8E
:1034F300121D528518828519837401125401794271
:103503001216BC9018087404F07401120924794A45
:103513001216B6740112092C7AFE7B171211AC90A5
:103523001682E0640B70057406F0800B7900901826
:10353300061258FB1218489017F912580C7A037B9D
:1035430000120FD29017FC12580C7A047B00120F52
:10355300D29017F3E0A2E35004D2F08002C2F0123B
:1035630053F779521216BC9019E4120B22121B84E2
:10357300803AFC7D007A037B10120FD2901682E012
:10358300640B7003740AF0901772E4F0FA7B4090B6
:103593001853E0F91211828E828F83A3E0F99018F9
:1035A300061258FB121848901808E4F0121BC67450
:1035B3000902416FEE2402FAE43FFB22C082C0837A
:1035C30090178C125C5D7017901808E024FB60055F
:1035D300146007800A9017928020901794801BE84C
:1035E30049600890178D1237E3700C8A828B83A38E
:1035F300E0F912183C800E901882125C5D6006128E
:103603005311120542024E3D125C72901806E06897
:1036130022125C72E8FAE9FB2274F51203CA74D829
:103623001209348A088B098A828B83A3A3A3A3A3D9
:10363300A3A3A3E0C3940F50030237DE8A828B83D4
:10364300A3A3A3125D20741512092C8A828B83A372
:10365300A3A3A3A3A3A3A3E0F98A828B831258F2A3
:10366300121BD27415120B39E0702E85088285095E
:1036730083A3A3A3A3A3A3A3A3E0C3940B401A8E82
:10368300828F83A3A3A3A3A3A3A3A3E064027009CC
:10369300EE240B124476F460030237DE7417120B28
:1036A30039E06007640260030237DE901808E064C3
:1036B30002601AE06406601590178C125C5D70035B
:1036C3000237DE1237E360030237DE803290178C55
:1036D300125C5D702A75080078081208A878081231
:1036E30008A8EE2410F582E43FF5831255D6A3A370
:1036F300A3122F011258FB121C9274021208668E39
:10370300828F83125723E8F0A3E9123D7B125C6E8C
:103713007402120B391255DF12499DC0E074041272
:103723000B39D0E0F0EE240B125DF9740F78081218
:103733000AD37405120B39E508F07419120B39E03A
:10374300C0E07406120B39D0E0F0741B120B39E0A1
:10375300C0E07407120B39D0E0F07416120B39E095
:10376300C0E07409120B39D0E0F07417120B39E082
:10377300C0E07408120B39D0E0F0EE241012447646
:10378300C0E0740A120B39D0E0F0741A120B39E05E
:10379300C0E0740B120B39D0E0F07427120B39E040
:1037A300C0E0740C120B39D0E0F0741C120B39A971
:1037B30082AA8389088A09750A0078081208A07CFE
:1037C300087D007410120B39AA82AB83121008749F
:1037D30003120866AA18AB1912184274280242C3CE
:1037E300E0C81257FC64012274F21203CA74F8127F
:1037F30009348A0A8B0B8C0C8D0D8908908860AC78
:1038030018AD1974081207CAC200AC0AAD0BAA1886
:10381300AB191211A6E97002D2009018548014ACAF
:103823000AAD0BEE240BFAE43FFB1211A6E9701B61
:1038330012445C1240BB601EA20040E38E828F8361
:10384300E0650C7004A3E0650D70E58E828F83A3A1
:10385300A3E0650870DAEEFAEFFB7408023D88C056
:1038630082C083901854024E3AC082C08390185489
:10387300E4F0A3023ADC74F71203CA9018541263FB
:103883003F800FEA2414F582E4125D1D1210C2EE8C
:10389300FAEFFBEA4B70EC901854E4F0A3F002410A
:1038A3007274F21203CA8A0C8B0DECFEEDFF890BC6
:1038B3008A828B831253BEF0A3A882A9838A828B48
:1038C3008312396D123EFBA3E0C454F0FA88828957
:1038D30083E04A1249E1850C828B83A3A312396DDD
:1038E300123980E0333354FC123974E033333354E8
:1038F300F8123974A3E0A2E0E4331313FA8882893F
:1039030083E04AF0EE2403FE50010FE50C2407F593
:1039130008E4350DF509750A0078081208A07C083B
:103923007D00EEFAEFFB1210087403120866EE2412
:1039330008FE50010FE50C240FF508E4350DF509D9
:1039430078081208A07C037D00EEFAEFFB12100842
:103953007403120866E50BC3940F400BE50C124584
:103963007E350D124F89F0023D8BA3E08882898357
:1039730022FA88828983E04A123980A322F0850CD7
:10398300828B83A3A3A3A32274F21203CAEAFEEBDE
:10399300FF8C0C8D0D8E828F83E08C828D83124F72
:1039A300BFA882A983E0540F8C828D83123D71C41A
:1039B300124DE01249D7124DE8123D6FA2E2E433F3
:1039C3008C828D83123D6E131313541F124DE0121C
:1039D3003D6EA2E7E4338C828D83A3A3A3A3A3A3A9
:1039E300F0EE2403FE50010F8E088F09750A00784C
:1039F300081208A07C087D00E50C2407FAE4350DC5
:103A0300FB1210087403120866EE2408FE50010F1F
:103A13008E088F0978081208A07C037D00E50C242A
:103A23000FFAE4350DFB12100874031208668E8238
:103A33008F83A3A3A3E0C0E012644AD0E0F0023D69
:103A43008B74F61203CAEAFEEBFF8E828F83A38583
:103A53008208858309E0F912186085088285098345
:103A6300E064EB601E8E828F83A3E064E160148EBA
:103A7300828F83A3E064F1600A8E828F83A3E06464
:103A83001A70078E828F83A3E4F09019E4120B223D
:103A9300121B8475080178081208A88E828F83A3ED
:103AA300E0F50878081208A8790090180612580C57
:103AB3009017FC1258FB121C927402120866121B18
:103AC300E40251C4C082C083E99018667003E480A5
:103AD3000274018004EAF0A3EBF0024E3D74F61287
:103AE30003CA901866E0701B7C0079017A007B00A2
:103AF300121C14EA4B600C8A828B83125C5D600398
:103B0300121B780251C4C082C0837904121C0EE9CF
:103B1300F890278FE493C398401079FF121C0EE9A5
:103B2300F890278EE493C3985004790180027900BA
:103B3300024E3D74F21203CA8A0A8B0B8909C20032
:103B43008A828B83A3A3A3A3A3A3A3A3E0F9121C39
:103B53001A8A0C8B0DAE0CAF0D750801EE4F600386
:103B6300023C1F850A82850B83A3A3A3A3A3A312ED
:103B7300580C850A82850B83A3A3A3A3A3A3A31233
:103B83003D581258FB121C028A0C8B0DAE0CAF0D64
:103B9300EE4F7003023D358E828F83A3A3A3A3E46C
:103BA300F0A3F0E50A240CFAE4350BFB8A828B833D
:103BB300E0C0E0123D3CD0E0F0E50A240D123D6286
:103BC300240D125736121CF8EE240F125DA0E50ADD
:103BD3002411123D622411125736E50A2413125D93
:103BE300EBC0E012446AD0E0F0D200EE24061249A2
:103BF30084123D4F123D7254046003023C8D9019B0
:103C0300F6E0F50A750B007407780A1209EE8E8246
:103C13008F83A3A3A3A3A3A3123D46F08E828F8316
:103C2300A3A3A3A3A3A3E0F50AA3E0F50B7407786A
:103C33000A120AD3E50A5407FCE509605C8E828FF9
:103C430083A3A3A3A3A3A3A3A3A37402124FC41286
:103C5300402F600B9017F4124A0AA3A312573CECAF
:103C63007003023D00EE24061263B3123D4FF0ECE5
:103C730024FFF50AE434FFF50B7407780A1209EE02
:103C83008A828B83123D46F080738E828F83A3A337
:103C9300A3A3A3A3E044808082EC70057508008091
:103CA3005C8E828F83A3A3A3A3A3A3E05420600C01
:103CB300121026EA547F7900245F80198E828F8345
:103CC300A3A3A3A3A3A3E05410601A121026EA54DB
:103CD3000F7900240A5001098E828F83A3A3A3A323
:103CE300F0A3E9800D8E828F83A3A3A3A37401F0B5
:103CF300A3E4123D7B7404123FB312106EA2005072
:103D0300348E828F83122F03A3A3A3A3A3A3A3A3FE
:103D1300A3E0F9EEFAEFFB121C08E96018125C54F9
:103D230060091241511258FB1210C2EEFAEFFB1256
:103D330010C2750800A908804FEE240CF582E43FF9
:103D4300F58322E0450AF0A3E0450B22E0547FF01F
:103D5300A3E054FC22A3E0F9850A82850B8322F5B4
:103D630082E4350BF583125C72EE22A3A3A3A312A4
:103D73003D7622125E12E022123D7F221242B7A349
:103D8300A3A32274031208667F060205E174F412EA
:103D930003CA74F71209347E00121C1AEA4B70032B
:103DA300023E4F8A828B83A3A3A3A3A3A3A3A3A3AC
:103DB300E064066003023E4F8A828B83A3A3A3A31E
:103DC300A3A3A3E0FF8A828B831263DBE0C0E074CA
:103DD30008120B39D0E012419512572812573C12A2
:103DE3001C2CEF5408606385188285198312580CC4
:103DF3007A007B00121BFC8B0BEA450B704C1264A0
:103E0300561216E67C007D007A007B0080288E82A5
:103E13008F83124CBCF47003A3E0F4602D9018065A
:103E2300122F071258FB1216E0E9641A601C7C007B
:103E33007D00EEFAEFFB121BFC8A0A8B0BAE0AAF76
:103E43000BEE4F70C979001216EC7E01EEF90230C9
:103E53000AC082C0838A828B83E58245837009907E
:103E6300186B80068A828B83A3A312406360208A27
:103E7300828B83A3A3A3A3A3A3A3E0540860E5ECCD
:103E83004D60101240697003A3E06D70D780047A0F
:103E9300007B00024E3D74F21203CA8A088B098923
:103EA3000AECFEEDFF7A147B001210BCEA4B603B78
:103EB3008A828B83A3A3A3A3A3A3A3A3A3E41241F3
:103EC3008AA3E50A125DCDA3A3A3EEF0A3EF123FED
:103ED3000012419C123F078A828B83126430EA24CA
:103EE3000F123EF1123EFAA3F0A3F0023D8BF582CE
:103EF300E43BF583E4F022A3126413A322125DDDF5
:103F0300E4F0A322A3F0125D16123EF42274F5121C
:103F130003CAEAFEEBFF890A8C088D09EE4F700392
:103F2300023FAE7401650A70127901121C0EE9F8A2
:103F3300902790E493C398502280167404650A7006
:103F4300147904121C0EE9F890278FE493C3985058
:103F53000A791180587402650A70508E828F83A388
:103F6300A3A3A3A3A3A3A3A3E50A124FC412642C80
:103F73008E828F83A3A3E4F0A3F090186B125C5D91
:103F830060188003125C6E88828983A3A312406346
:103F930088828983A3A370EC800390186BEEF0A34F
:103FA300EF123FB312106E7900800279C10242C64C
:103FB300F07A207B00901853E0F922C082C083E995
:103FC300F8790090186B801D8A828B83A3A3A3A327
:103FD300A3A3A3A3A3E068600574FF687001098A23
:103FE300828B83A3A312406370DE024E3D74F712EB
:103FF30003CAEA4B700590186B80068A828B83A3F1
:10400300A3124063601F8A828B83A3A3A3A3A3A3EA
:10401300A3A3A3E06970E4EC600F8A828B83124050
:104023002F70D880047A007B000241721263FFE094
:10403300540422C082C08390186B80068A828B83CB
:10404300A3A312406360128A828B83A3A3A3A3A3B7
:10405300A3A3A3E06970E580047A007B00024E3DD0
:104063001258FFEA4B228A828B83124CC06C227453
:10407300F21203CA8A0A8B0B8C0C8D0D750800751E
:104083000900EA450B602A90186B80068E828F83A5
:10409300A3A31240BB601AAC0CAD0DEEFAEFFB8587
:1040A3000A82850B83120542E9640170DF8E088F53
:1040B30009AA08AB09023D8BE0FEA3E0FFEE4F2205
:1040C30074F71203CA90186B125C6E7C007D00803B
:1040D3000DE8FCE9FD88828983A3A3125C6EE8499D
:1040E3006030EA687002EB6970E790186B1258FB56
:1040F300E86A7002E96B88828983A3A37008125C63
:104103006E90186B8009125C6E8C828D83A3A31250
:10411300573C805B74F71203CAEAFEEBFFEE4F6075
:104123002B121C2612415F1258FB1210C28E828F73
:10413300831258FB1210C2125C54600912415112CF
:1041430058FB1210C2EEFAEFFB1210C28021EE12DE
:10415300415622240FF582E43FF583228E828F831A
:10416300E0F8A3E0C812583638F583221208667FB8
:10417300010205E11258108A828B8322E0F98A82B8
:104183008B83A3A3A3A32212418E22125DE1A3A3D7
:10419300A322126413124CC02212418EA3A32274D1
:1041A300F61203CA90186B125D2080308E828F83C3
:1041B300A3A3125DFF12415F1258FB1210C28E823D
:1041C3008F831258FB1210C21241511258FB121066
:1041D300C2EEFAEFFB1210C2AE08AF09EE4F70CC7D
:1041E30090186BE4F0A3F00251C4C082C083EAFCD0
:1041F300EBFDEC4D6017EC24FBF582ED34FF125C14
:104203005B7007124247E0F46007121032790580B1
:1042130030901853E0C0E0124247D0E0F090278777
:10422300E493F97A6D7B18121068E9640170107ACF
:10423300007B20901853E0F912106E790080027908
:1042430004024E3DEC24FFF582ED34FFF583227426
:10425300F41203CAA2AFE433F508C2AF90186D128B
:1042630040BB603AEE24FBF582EF34FF125C5B7ACD
:10427300007B209018536007E0F912106E8005E070
:10428300F9121074E4F50AF50B780A1208A4EEFC8F
:10429300EFFD7A6D7B181210627402120866E5084E
:1042A300A2E092AFEEFAEFFB02300F1242B3E0222C
:1042B3001242B722F08E828F83A3A3A3A3A3A322C8
:1042C3001208667F030205E174F21203CA74FA123C
:1042D3000934EAFEEBFF7508FE7509FF121BEAE9D4
:1042E30060057911024457124473603B901A0FE042
:1042F300C43354E0F8E0333354FC48C0E0125AECC2
:10430300D0E0125E18FAA3E0FB79FF1219B08B0B11
:10431300EA450B60127508FFEE240F12447644043D
:10432300F0124473D2E0F08E828F831258F9121C7C
:10433300F2E96006EE2412125E2FEE241312447685
:10434300700D902792E493C0E012446AD0E0F08E9F
:10435300828F83E0A2E7500454038019EE241412E1
:10436300447670129017E5E0C0E012445CD0E0F0B0
:104373009017E5E004F0EE24111244766401701600
:104383009019FAE0600D9017F0E0700A8E828F8327
:10439300E07003125E2C8E828F83E064017013EE53
:1043A300240B124CB664027009EE240F12447644B7
:1043B30040F0AC18AD19EEFAEFFB121C568A0A8BCB
:1043C3000B74FE6508700374FFF470098E828F838B
:1043D300A3A3125DFFEA450B60768E828F83E0C054
:1043E300E07401120B39D0E0F07404120B39EEF0D3
:1043F300A3EFF0EE241E125C687402120B391257FD
:104403003C740112091C880C890D780C1208A4EE67
:10441300242012447E1208A81241511206B0EE2441
:104423000E12447E1208A89017F91206B0740812EF
:104433000B39E0F9AC08AD09121C50740812086678
:10444300E9FE74106E700BAA0AAB0B1210C2800245
:104453007E10EEF97406023D8812446022EE2414A5
:10446300F582E43FF58322EE12446F221253EE22CB
:10447300EE2415F582E43FF583E022F582E43FF56F
:1044830083E0F50C780C22C082C08374D712093400
:10449300908682740312092C74261207CA8A828BAF
:1044A30083A3A3A3A3125C6E740E120B3912640BC5
:1044B300A3A3125C6E740C120B391245921245843D
:1044C3001250E7C0E0741A120B39D0E0F0125B69A6
:1044D300125C6C7420120B391245921253AD1250B8
:1044E300E7C0E07408120B39D0E0F0EA241CF5822F
:1044F300E43B125C6C7412120B391245922411F5D1
:1045030082E41250E7C0E07409120B39D0E0F012D4
:10451300457D1250E7C0E07407120B39D0E0F0EA92
:10452300241EF582E43B125C6C7424120B39124591
:10453300922420F582E41250E7C0E07426120B396E
:10454300D0E012458A74FFF07401120B3974FFF046
:104553007402120B3974FFF09088EF1206AC7404E6
:1045630012092C74071209241218367404120866EF
:1045730079007429120866024E3DEA2412F582E49A
:1045830022240DF582E422F085188285198322E81E
:10459300F0A3E9F0EA2274F41203CA74EC120934AA
:1045A3008A0A8B0B8C088D09E9FF7E107A217B0028
:1045B3001210BC851882851983EAF0A3EB125C63A1
:1045C300E84970030246A77C217D007900851882A3
:1045D300851983E0FA1210149018061258FB8518F7
:1045E300828519831263D12409F582E438125DA40C
:1045F3007420120B39125C6E7411120B39124D3385
:10460300125C1638F5837402124D371263E274029A
:10461300124D20E508F0A3E509124D371263C0EFF0
:10462300F07422120B39124CD4F9A3E0C91260B80A
:1046330039F583E81249D2A3E0C912583639124634
:10464300AE7423120B391258FB7406120B39125D28
:10465300A67408120B39E8F07426120B39125C3A6F
:10466300C082C083740C120B39AC82AD83D083D06B
:104673008274051207CA7425120B39E0C0E0741363
:10468300120B39D0E0F07900AA18AB19121BF0E92C
:10469300640170047E00800C85188285198312588A
:1046A300FB1210C2EEF9741402300CF583E50AF024
:1046B300A3E50BF02274F01203CA74FF120934EA63
:1046C300FEEBFF8C088D098E828F83A37408F0EEB6
:1046D300241612447660088E828F83A37410F0EE42
:1046E300241712447660098E828F83A3E02408F096
:1046F30012447360088E828F83A3E004F08E828F4E
:1047030083A3A3A3A3A3A3E060198E828F83A3A390
:10471300A3A3A3A3A3E0C3332402F88E828F83A3AE
:10472300E028F0EE241112498D6004740E8001E438
:10473300F0901A07E0640170168E828F83E06401A3
:10474300600D901772E0600712497A7401800412B9
:10475300497AE41249D28E828F83A3E012499B28BF
:10476300298C828D83F0EE24111244766013901706
:10477300F1E0F9121B48E9F8850882850983E029ED
:10478300F0850882850983E0C394754009750C00A0
:10479300750D00024971E0FA7B001210BC8A0C8B84
:1047A3000DEA450D70030249718E828F83E0FA9002
:1047B30017F61249CB740278081209EEEA4508FA93
:1047C300AB09EE24121249C5740678081209EEA843
:1047D30008EA48FCEBFD1244736004780180027818
:1047E30000EE2416FAE43FFBE4C8F9ED49FDEE249C
:1047F30011124476F5088809740978081209EEED58
:104803004509FD8A828B831249CB740B7808120900
:10481300EEED4509FDEE24171249C5740C78081214
:1048230009EEED4509FD8E828F83A3A3A3A3A3A362
:104833001249CB740A78081209EEED4509FDEE24FE
:10484300231249C5740D78081209EEECF8ED4509F9
:10485300F9E8850C82850D83F0E91249D7850C822E
:10486300850D831249FAF0EE24041249841249AFEC
:104873001249FAA3A31253E41249AFA3A3A3A312A9
:104883006426850C82850D83A3A3A3A3A3A3A3F00E
:10489300750B088A828B83E06015EE241812580684
:1048A300E50C2408FAE4350DFB1211AC750B10EE80
:1048B30024171244766019EE241A125806A80BE541
:1048C3000C28FAE4350DFB1211AC7408250BF50B1B
:1048D3008E828F83A3A3A3A3A3A3E06055EE240733
:1048E300F50EE43FF50F850E82F583E0C0E0124933
:1048F300A2D0E01249EAE0C0E0081249A4D0E012D5
:1049030049EAA3125C471208A0850E82850F83E053
:10491300124C86A80BE50C28FAE4350DFB1210089F
:104923007403120866850E82850F83E0C333250B5B
:10493300F50B1244736008C0E01249A2D0E0F012F4
:104943005715125C471208A012499CFC7D007403A2
:10495300120B391249BDE0F8E50C28F8E4350DF9DE
:10496300E82AFAE439FB1210087403120866AA0C49
:10497300AB0D7401025C29EE2423F582E43FF58339
:1049830022F8E43FF98882898322F582E43FF583A4
:10499300E085188285198322F8EE1262A8E022A826
:1049A3000BE50C28F582E4350DF583221249B32279
:1049B300E0850C82850D83A3A322E0FA8E828F8388
:1049C300A322F582E43FF583E0F50875090022127E
:1049D3006419F922A31249E188828983E022F0EE67
:1049E3002402F8E43FF922F0050B8E828F83A3A300
:1049F300A3A3A3A3A3A322A3A3125E12A31249B347
:104A0300A322740302300C125C728E828F83A3A3E1
:104A13002274F01203CA74FD1209348518828519B1
:104A230083125DA67402120B39E9F08C0C8D0D759F
:104A33000B017C267D007900AA0CAB0D12101474B7
:104A430002120B39E0C394085003024C10E0850CAA
:104A530082850D83F0AC0CAD0D8518828519831208
:104A63004CBCFA851882851983125310124FB31266
:104A73001C62E96003750B00851882851983125C3B
:104A83003A124CDEE0F9EA850C82850D83A3A3A3D9
:104A9300A3A3A3A3A3A3F0A3E9124D20A3A3124CA2
:104AA300DEA3A3E0F9EAF8E50C125C1612645112D6
:104AB3004D331257F8C0E0E50C241112644ED0E0D8
:104AC300124D372407F582E438F583E0C0E0126421
:104AD3004AD0E0124D0A7408124D17A3E0602085F6
:104AE3001882851983E02408F8A3E03400F9E50C63
:104AF300241312644EE8F0A3E9125C112408F08534
:104B03000C82850D83A3A3A3A3A3A3A3A3E0602A7D
:104B1300850C82850D83A385820E85830F124CCB72
:104B2300F8A3E03400F9E50C1253AD350D12573AF2
:104B3300850E82850F83E02408F0124C8DE4F01279
:104B43004C9DE4F0A3124D0AA3A3A3A3E0601112AA
:104B53004CEF850C82850D83A3A3A3A3A3124D2839
:104B6300E50C124CAEE07003024BFC124CEFFA1250
:104B73004C8DEA124D28F8851882851983E028FBAD
:104B8300A3E034008B82F583E0F8E50C241A126469
:104B93004EE8124D28E8C39AE50C5058124CA9F878
:104BA300902788E493C39850047E0C8006E50C128A
:104BB3004CA9FE850C82850D83124CCAF508A3E02F
:104BC3003400F509750A0078081208A0EE124C8625
:104BD3007AFD7B0B1210087403120866124C9D7445
:104BE300FDF0A3740BF0EEC333F8850E82850F83BB
:104BF300E0288004124CAEE4F0850C82850D83A37B
:104C0300E0F8850C82850D83E0C398500479008019
:104C13006F124CCAFAA3E03400FBE50C125E263592
:104C23000D125DA4850C82850D83E0C398C0E0E579
:104C33000C241712644ED0E0124D17E06040E50CCF
:104C43002417FEE4350DFF8E828F83E024F2F0E516
:104C53000C241DF8E4350DF988828983E0240EFACB
:104C6300A3E03400FB88828983125DA69017F1E0EC
:104C7300F9121B48E9F88E828F83E0C398F0A90BE1
:104C8300025C2725E0FCE433FD22E50C124C932261
:104C93002419F582E4350DF58322E50C241BF582F6
:104CA300E4350DF58322124C93E022125C0B350D93
:104CB300F58322F582E43FF583124CC022E0F8A38A
:104CC300E0F5838882E022A3124CCF22124CD42831
:104CD30022E0F8851882851983E022A3A3E0FA85F0
:104CE3001882851983125C40A3A3A322850C8285B5
:104CF3000D83A385820E85830F124CCFFAA3E03474
:104D0300008A82F583E022124D0E22F0850C828503
:104D13000D83A322124D0EA3A3A3A3A322124D3CE2
:104D2300F583888222F0850E82850F83E004F022CA
:104D3300E8F0A3E9124D3CC82212641DF8A3E02257
:104D430074F41203CA8A088B09EA124DE8A3A3F08C
:104D5300EA1313543F124DE0A3A3F0EAC413131252
:104D63004DE8124DF27409780A120AD3124DD7A3F3
:104D7300A3A3A3A3A3F0EB124DD9124DF1740A78A8
:104D83000A120AD3E50A5401C0E0EC125C0B3DF5AC
:104D930083D0E0124DF6740B780A120AD3124DD762
:104DA300124DEF740C780A120AD3124DD7A3124D89
:104DB300EF740D780A120AD3E50A5401C0E0EC241B
:104DC30024F582E43DF583D0E0F0740E7808120AEE
:104DD300D3023006E50A54018C828D8322540F8C52
:104DE300828D83A32254038C828D8322A3A3A3A346
:104DF300A3A3A3F08A0A8B0B22C082C08379008A03
:104E0300828B83A3A3A3A3A3A3E09017F0600EE078
:104E130070238A828B83A3A3E0701A8016E0601547
:104E23008A828B831258F29017F9E06A7003A3E029
:104E33006B6002790180031258FBD083D082020891
:104E43004E74F21203CA8A0A8B0B890CECFEEDFF37
:104E53008A828B83124FB1121C62850A82850B836F
:104E6300A3A3124FA5E0F9EA8E828F83A3A3A3A382
:104E7300A3A3A3A3A3124FD0124FA5A3A3E0F9EAC0
:104E8300F8125715E8124FD0A3A3E0C0E0EE2411A7
:104E9300F582E43FF583D0E0124FD7A3A3A3E0C08C
:104EA300E0EE12457E3FF583D0E0124FBF74081247
:104EB3004FCAA3A3A3E06016E50A2408F8E4350B60
:104EC300F9EE24131253C4124FBFE02408F08E826C
:104ED3008F83A3A3A3A3A3A3A3A3E060148E828FB2
:104EE30083A3124F94EE24151253C41255F72408CA
:104EF300F08E828F83A3A3A3A3A3E0601F8E828F70
:104F030083A3858208858309E0F8E50A28F582E40E
:104F1300350B124F89A3A31255F704F0EEFAEFFBFA
:104F2300121C68E9F50D70598E828F83A3A3A31217
:104F330053BBA37014E0F8E50A28FAE4350BFBEE43
:104F4300241D125DA0E50C8028124F94E8240EF86E
:104F5300500109EE241D1257369017F1E0F9121B88
:104F630048E9F8850882850983E0F9E50CC39924AB
:104F7300F2C398C0E0EE2417F582E43FF583D0E056
:104F8300F0A90D023D8BF583E08E828F83A3A3A34B
:104F930022858208858309E0F8E50A28F8E4350BC1
:104FA300F922E0FA850A82850B83A3A3A322E0FA00
:104FB300A3E0F8E4C8F9EA28E439FB22124FC4A3BA
:104FC30022F08E828F8322125E1DA3A322F0A3E917
:104FD300124FD722F0850A82850B83A3A3A3A322B2
:104FE300C082C0837A797B1879E21216B67A797B0C
:104FF30018024E3DC082C0839017F9024E3AC08218
:10500300C0839017FC024E3AC082C083794A1216BD
:10501300B6024E3D74F61203CA901881E0FE04F006
:10502300EEF9121C1A8B09EA450970EDEE60EAF9F4
:105033000251C474F21203CAEAFEEBFF8C088D0915
:10504300890A121D58740E120B39E0F9740F120BF2
:1050530039E0F8EA4B7012E8701BA90AAC08AD09F5
:10506300EEFAEFFB121D768071E86017E970068A8D
:10507300828B83E4F07401687060E9901884702770
:10508300E48021E97054EA2402F582E41250E7A88F
:105093000A28F8E4340013E813F0703E8A828B8305
:1050A300A3A37401F08033E004F09019F7E0F890C3
:1050B3001884E0C3984023E4F09017FCE06E70037B
:1050C300A3E06F7015EEFAEFFB790112185A7A011B
:1050D3007B00901853E0F9121182023D8B74892AE8
:1050E300F582740A3BF583E02274F41203CA8A083A
:1050F3008B098C0A8D0B9088CF7808120960700E8B
:105103007A017B00901853E0F912106E80319019E8
:10511300E47808120AC4122DA96018780812089CB2
:105123007A017B00901853E0F91211767404120887
:1051330066800C7A017B00901853E0F91211820209
:10514300300FC082C0839019E8023AD8C082C0836E
:105153009019EA023AD874F61203CA7E007508E57C
:1051630075091778081208A47C6E7D007A217B00EC
:105173001211347402120866E9640A70027E011285
:1051830017B8E9640A7004EED2E1FE900336125CAC
:105193005D600F125311120542E9640A7004EED2E6
:1051A300E3FE1219D4E9640A7004EED2E4FE121687
:1051B30038E9640A7004EED2E5FEEEF980031208C2
:1051C300667F020205E174F61203CA120FCC75085A
:1051D300E575091778081208A475086E7509007833
:1051E300081208A47C007D007A217B001211407410
:1051F300041208661217BE900338125C5D60061233
:1052030053111205421219DA12164A80B474F612B7
:1052130003CA74FF1209347E007508E5750917780F
:10522300081208A47C6E7D007A217B00121134746D
:1052330002120866E960030252F578081208A475A1
:10524300086E8E0978081208A47C007D007A217B01
:10525300001211467404120866E960030252F590C5
:1052630017F9E064FE7003A3E0F470030252F57EC5
:1052730001901808E064086005E06404706F851805
:1052830082851983EE12540179421216BC7A107B7F
:105293001879431216BC7A0D7B1879471216BC7A1B
:1052A300FE7B17794A1216BC7AFC7B17794B1216D0
:1052B300BC7A067B1879501216BC7AF97B1779539E
:1052C3001216BC7A0E7B1879541216BC7AFB7B1724
:1052D30079E11216BC9017F3E0A2E35004D2F080F8
:1052E30002C2F01253F779521216BC8005120FCC8A
:1052F3007E001217AC90033A125C5D6006125311E4
:105303001205421219E6EEF974010251C1A3125CAF
:10531300412274F61203CAE9FEA2E050267508E59D
:1053230075091778081208A475086E7509007808BE
:105333001208A47C007D007A217B001211407404C2
:10534300120866EEA2E350031217B2EEA2E2500E69
:1053530090033C125C5D6006125311120542025128
:10536300C474F71203CA74ED120934E9FE9018529B
:10537300F0AC18AD19901A29E0F97A567B18121B74
:10538300D27412120B39EE1253A2AA18AB19121BC4
:10539300CC7A567B1879451216BC741302416FF010
:1053A300901A29E0F97C567D18222415F582E4220F
:1053B300125D173509F58322A3A3A3E08E828F83A1
:1053C30022F582E43FF583E8F0A3E922EE125D17AC
:1053D3003FF5831253DA22E0F8A3E0F98882898348
:1053E300221253E822F0EE1253EE222413F582E444
:1053F3003FF58322A2F0E433851882851983F0AA4E
:1054030018AB192274F41203CA8A088B097A007B39
:1054130004901853E0F91211821254C390180874BF
:1054230009F0121C748A0A8B0BAC0AAD0B1234748C
:105433001258FB1211A6E96401706B7A0F7B0012FC
:10544300102C8A0A8B0BAE0AAF0BEE4F60588E827C
:105453008F837402F0E508125E2635091254ACFC02
:1054630088828983A3A3E0FBEC8E828F83A3A3129C
:105473005DA7888289831253BB1254B4FAA3E0FB5D
:10548300794A1216BC850882850983A3A3A3A3A323
:10549300A3E070069016827405F0EEFAEFFB901805
:1054A30053E0F912103802300FF5831253DAA3E0F8
:1054B30022A3F0E5082415F582E43509F583E022FB
:1054C30090178E125C729019EAE8F0A3E9F0901736
:1054D30090125C729019E8E8F0A3E9F02274F412D8
:1054E30003CA74FD1209348A088B097401120B393B
:1054F3007402125401121CE68A0A8B0BAE0AAF0B1C
:10550300EE4F70030255CF1263EBE41255EBE064E8
:1055130001700888828983A37420F0850882850935
:1055230083A3A3A3A3A3E06401700988828983A34F
:10553300E0D2E6F0850882850983A3A3A3A3A3A3EE
:10554300E06401700A88828983A3E0D2E7800512B0
:10555300446A74011255E6E06401701E8508828571
:105563000983A3A3125C5D6003125E3885088285FC
:105573000983A3A3125C6E125733850882850983BE
:10558300A3A3A3A3A3A3A3E064017009EE240F12B2
:105593005E3BA3E4F08508828509831258FB121C45
:1055A300F2E96009EE240F1244764404F0EE241766
:1055B300125E3B121C74125CE51255F71255D4129D
:1055C30055DDFAEFFB1217D6E9F980027910024A8A
:1055D30005F8A3E0F98E828F8322A3A3E8F0A3E961
:1055E300F0EE221255EBA322F0850882850983A3EE
:1055F300A3A3A322F0850882850983E02274F51210
:1056030003CA74F3120934890AEAFEEBFF75080032
:105613007509007C0D7D007900AA18AB19121014CE
:10562300125C01125816741F58600C7AD37B001257
:1056330014C47900025710E8A2E55008740C120B49
:10564300397401F0E8A2E75008740B120B397401A6
:10565300F0E8A2E6740A5008120B397401F08008CE
:10566300120B39E0640170138E828F83A3A3A3A36B
:10567300A3A3A3E06030EE241380128E828F83A352
:10568300A3A3A3A3A3A3A3E0601CEE2415125DF9B7
:10569300E50845096010AC08AD097402120B39AA7C
:1056A30082AB831211AC12571512572312573C7455
:1056B3000A120B39E06401704B901A1AE0604C64D3
:1056C300017006901A04E06042EE240B125C6890AD
:1056D30017FCE0687003A3E06970301258EE121CE7
:1056E300F2E97027E5084509601A121C748A088BD1
:1056F30009AC08AD097402120B39AA82AB831211EB
:10570300A6E96007AA18AB19121854A90A740D0266
:1057130042C312571922EE240BF582E43FF583228C
:1057230012572722E0F8A3E0F9851882851983220E
:10573300EE2418F582E43FF583E8F0A3E9F0227440
:10574300F71203CA74CD1209341263C91257F8A2AF
:10575300E040030257F38E828F831253D6A3A3A391
:10576300A3A3A3E054FE1260BE740D12092C1258B9
:10577300231258FB121C6EE97076742A120B39122D
:10578300581D706C7C0D7D007900AA18AB1912109E
:10579300147416120B3912572312573C742A120B26
:1057A30039125816A2E55008740B120B397401F024
:1057B300E8A2E75008740A120B397401F0E8A2E674
:1057C3005004742080027422120B3912580C740294
:1057D300120B39AA82AB831211AC8E828F83A3A3DF
:1057E300E0C0E0740C120B39D0E012540112184ED1
:1057F300743302416F1257FC222406F582E438F514
:1058030083E022F582E43FF58312581022E0FCA3E3
:10581300E0FD22125C3EA3E0F822124CC064042295
:10582300EA241EF582E43BF583E0F9EA1258363B9D
:10583300F58322241FF582E422E9F87900740468D1
:10584300600A740A686005740368700279010208CB
:105853004E74F61203CA8A828B837424F0A3A37452
:1058630001F01217DC8A088B09AE08AF09EE4F600E
:105873000D8E828F83125D31121C74125D9DEEFAC0
:10588300EFFB0251C4C082C08390186F7401F0E92A
:10589300A2E350037403F0E9A2E15004E0D2E2F082
:1058A300024E3D74F61203CA79007C008A088B0904
:1058B3007808120627F8FF07DB58D958D958D95862
:1058C300D958D158D558DB58CD587C01800A7C046F
:1058D30080067C0280027C0890186FE05C6004798B
:1058E300028005EC600279010251C48E828F83A38A
:1058F300A3A3A3A3A3A3A3A31258FF22E0FAA3E0A5
:10590300FB2274F61203CA8A828B83E07014A3A36A
:10591300A3125C5D600C8A828B831258F8121A34CE
:1059230080047A007B000251C4C082C0837800E8FF
:1059330075F003A4FCA9F0E9FD1259BB6A7003A337
:10594300E06B7018902780E493C0E074702CF582AC
:10595300741839F583D0E0F079C5805908E8C39409
:105963000340CC7800E875F003A4FCADF01259BBFA
:1059730064FE7003A3E0F4601E08E8C3940340E5EB
:105983007800E875F003A4FCADF074702CF5827414
:10599300183DF583E07015E8125E6F125DA690273F
:1059A30080E49388828983F07900800908E8C394AE
:1059B3000340CF79C7024E3D74712CF58274183DB4
:1059C300F583E02274F41203CA74F3120934EAFE75
:1059D300EBFF8C088D09750A12EE4F7005790002F2
:1059E3005A819017F9E06E7003A3E06F701D121CCB
:1059F300748A0A8B0BAC0AAD0BAA08AB091211A669
:105A0300E97005750A018003750A008518828519F6
:105A130083E4F004120B39EEF0A3EF1254011217D2
:105A230094E9602A7403120B39AA82AB83121770AC
:105A3300E964017019750A017403120B39AC82AD64
:105A430083AA08AB091211A6E96003750A00AC0822
:105A5300AD09EEFAEFFB121D5EE9F8740A687005F2
:105A6300750A01801774A0687012AC08AD09EEFACC
:105A7300EFFB121D6AEEFAEFFB121D7CA90A740DEF
:105A830002300C74F71203CAEAFEEBFF8E828F8397
:105A9300A3A3A3A3A3A3A3A3E06013125AEC1234FA
:105AA3008D121D04E964017005125715802C8E8236
:105AB3008F83A3A3A3A3A3A3A3E06028EE241312BD
:105AC30058061258EE121D04E9640170178E828F76
:105AD30083A3A3A3A3A3A3A3A3A31258FB121CFEF4
:105AE300790180027900024172EE2415F582E43FC8
:105AF300F5832274F21203CA74FD1209348A088BE7
:105B030009ECFEEDFF890A750B017401120B397460
:105B130004125401121CE6EA4B60467411120B394D
:105B2300E06015125D02E4125DD48A828B83E0D2B9
:105B3300E7F0EA2414123EF1125B691253D47403A2
